{
  "contractName": "DossierAlpha",
  "abi": [
    {
      "inputs": [],
      "payable": false,
      "stateMutability": "nonpayable",
      "type": "constructor"
    },
    {
      "constant": false,
      "inputs": [
        {
          "name": "_roll_number",
          "type": "uint256"
        },
        {
          "name": "_name",
          "type": "string"
        }
      ],
      "name": "set_name",
      "outputs": [],
      "payable": false,
      "stateMutability": "nonpayable",
      "type": "function"
    },
    {
      "constant": false,
      "inputs": [
        {
          "name": "_roll_number",
          "type": "uint256"
        },
        {
          "name": "_name_father",
          "type": "string"
        }
      ],
      "name": "set_name_father",
      "outputs": [],
      "payable": false,
      "stateMutability": "nonpayable",
      "type": "function"
    },
    {
      "constant": false,
      "inputs": [
        {
          "name": "_roll_number",
          "type": "uint256"
        },
        {
          "name": "_name_mother",
          "type": "string"
        }
      ],
      "name": "set_name_mother",
      "outputs": [],
      "payable": false,
      "stateMutability": "nonpayable",
      "type": "function"
    },
    {
      "constant": true,
      "inputs": [
        {
          "name": "_roll_number",
          "type": "uint256"
        }
      ],
      "name": "get_name",
      "outputs": [
        {
          "name": "",
          "type": "string"
        }
      ],
      "payable": false,
      "stateMutability": "view",
      "type": "function"
    },
    {
      "constant": true,
      "inputs": [
        {
          "name": "_roll_number",
          "type": "uint256"
        }
      ],
      "name": "get_name_father",
      "outputs": [
        {
          "name": "",
          "type": "string"
        }
      ],
      "payable": false,
      "stateMutability": "view",
      "type": "function"
    },
    {
      "constant": true,
      "inputs": [
        {
          "name": "_roll_number",
          "type": "uint256"
        }
      ],
      "name": "get_name_mother",
      "outputs": [
        {
          "name": "",
          "type": "string"
        }
      ],
      "payable": false,
      "stateMutability": "view",
      "type": "function"
    },
    {
      "constant": false,
      "inputs": [
        {
          "name": "_roll_number",
          "type": "uint256"
        },
        {
          "name": "_name",
          "type": "string"
        },
        {
          "name": "_name_father",
          "type": "string"
        },
        {
          "name": "_name_mother",
          "type": "string"
        }
      ],
      "name": "set_data",
      "outputs": [],
      "payable": false,
      "stateMutability": "nonpayable",
      "type": "function"
    },
    {
      "constant": true,
      "inputs": [
        {
          "name": "_roll_number",
          "type": "uint256"
        }
      ],
      "name": "get_data",
      "outputs": [
        {
          "name": "",
          "type": "string"
        },
        {
          "name": "",
          "type": "string"
        },
        {
          "name": "",
          "type": "string"
        }
      ],
      "payable": false,
      "stateMutability": "view",
      "type": "function"
    },
    {
      "constant": false,
      "inputs": [
        {
          "name": "_roll_number",
          "type": "uint256"
        },
        {
          "name": "_X_english",
          "type": "uint256"
        }
      ],
      "name": "set_marks_X_english",
      "outputs": [],
      "payable": false,
      "stateMutability": "nonpayable",
      "type": "function"
    },
    {
      "constant": false,
      "inputs": [
        {
          "name": "_roll_number",
          "type": "uint256"
        },
        {
          "name": "_X_maths",
          "type": "uint256"
        }
      ],
      "name": "set_marks_X_maths",
      "outputs": [],
      "payable": false,
      "stateMutability": "nonpayable",
      "type": "function"
    },
    {
      "constant": false,
      "inputs": [
        {
          "name": "_roll_number",
          "type": "uint256"
        },
        {
          "name": "_X_science",
          "type": "uint256"
        }
      ],
      "name": "set_marks_X_science",
      "outputs": [],
      "payable": false,
      "stateMutability": "nonpayable",
      "type": "function"
    },
    {
      "constant": false,
      "inputs": [
        {
          "name": "_roll_number",
          "type": "uint256"
        },
        {
          "name": "_X_social_science",
          "type": "uint256"
        }
      ],
      "name": "set_marks_X_social_science",
      "outputs": [],
      "payable": false,
      "stateMutability": "nonpayable",
      "type": "function"
    },
    {
      "constant": false,
      "inputs": [
        {
          "name": "_roll_number",
          "type": "uint256"
        },
        {
          "name": "_X_computer_science",
          "type": "uint256"
        }
      ],
      "name": "set_marks_X_computer_science",
      "outputs": [],
      "payable": false,
      "stateMutability": "nonpayable",
      "type": "function"
    },
    {
      "constant": false,
      "inputs": [
        {
          "name": "_roll_number",
          "type": "uint256"
        },
        {
          "name": "_X_percentage",
          "type": "uint256"
        }
      ],
      "name": "set_marks_X_percentage",
      "outputs": [],
      "payable": false,
      "stateMutability": "nonpayable",
      "type": "function"
    },
    {
      "constant": false,
      "inputs": [
        {
          "name": "_roll_number",
          "type": "uint256"
        },
        {
          "name": "_X_cgpa",
          "type": "uint256"
        }
      ],
      "name": "set_marks_X_cgpa",
      "outputs": [],
      "payable": false,
      "stateMutability": "nonpayable",
      "type": "function"
    },
    {
      "constant": true,
      "inputs": [
        {
          "name": "_roll_number",
          "type": "uint256"
        }
      ],
      "name": "get_marks_X_english",
      "outputs": [
        {
          "name": "",
          "type": "uint256"
        }
      ],
      "payable": false,
      "stateMutability": "view",
      "type": "function"
    },
    {
      "constant": true,
      "inputs": [
        {
          "name": "_roll_number",
          "type": "uint256"
        }
      ],
      "name": "get_marks_X_maths",
      "outputs": [
        {
          "name": "",
          "type": "uint256"
        }
      ],
      "payable": false,
      "stateMutability": "view",
      "type": "function"
    },
    {
      "constant": true,
      "inputs": [
        {
          "name": "_roll_number",
          "type": "uint256"
        }
      ],
      "name": "get_marks_X_science",
      "outputs": [
        {
          "name": "",
          "type": "uint256"
        }
      ],
      "payable": false,
      "stateMutability": "view",
      "type": "function"
    },
    {
      "constant": true,
      "inputs": [
        {
          "name": "_roll_number",
          "type": "uint256"
        }
      ],
      "name": "get_marks_X_social_science",
      "outputs": [
        {
          "name": "",
          "type": "uint256"
        }
      ],
      "payable": false,
      "stateMutability": "view",
      "type": "function"
    },
    {
      "constant": true,
      "inputs": [
        {
          "name": "_roll_number",
          "type": "uint256"
        }
      ],
      "name": "get_marks_X_computer_science",
      "outputs": [
        {
          "name": "",
          "type": "uint256"
        }
      ],
      "payable": false,
      "stateMutability": "view",
      "type": "function"
    },
    {
      "constant": true,
      "inputs": [
        {
          "name": "_roll_number",
          "type": "uint256"
        }
      ],
      "name": "get_marks_X_percentage",
      "outputs": [
        {
          "name": "",
          "type": "uint256"
        }
      ],
      "payable": false,
      "stateMutability": "view",
      "type": "function"
    },
    {
      "constant": true,
      "inputs": [
        {
          "name": "_roll_number",
          "type": "uint256"
        }
      ],
      "name": "get_marks_X_cgpa",
      "outputs": [
        {
          "name": "",
          "type": "uint256"
        }
      ],
      "payable": false,
      "stateMutability": "view",
      "type": "function"
    },
    {
      "constant": false,
      "inputs": [
        {
          "name": "_roll_number",
          "type": "uint256"
        },
        {
          "name": "_X_english",
          "type": "uint256"
        },
        {
          "name": "_X_maths",
          "type": "uint256"
        },
        {
          "name": "_X_science",
          "type": "uint256"
        },
        {
          "name": "_X_social_science",
          "type": "uint256"
        },
        {
          "name": "_X_computer_science",
          "type": "uint256"
        },
        {
          "name": "_X_percentage",
          "type": "uint256"
        },
        {
          "name": "_X_cgpa",
          "type": "uint256"
        }
      ],
      "name": "set_marks_X",
      "outputs": [],
      "payable": false,
      "stateMutability": "nonpayable",
      "type": "function"
    },
    {
      "constant": true,
      "inputs": [
        {
          "name": "_roll_number",
          "type": "uint256"
        }
      ],
      "name": "get_marks_X",
      "outputs": [
        {
          "name": "",
          "type": "uint256"
        },
        {
          "name": "",
          "type": "uint256"
        },
        {
          "name": "",
          "type": "uint256"
        },
        {
          "name": "",
          "type": "uint256"
        },
        {
          "name": "",
          "type": "uint256"
        },
        {
          "name": "",
          "type": "uint256"
        },
        {
          "name": "",
          "type": "uint256"
        }
      ],
      "payable": false,
      "stateMutability": "view",
      "type": "function"
    },
    {
      "constant": false,
      "inputs": [
        {
          "name": "_roll_number",
          "type": "uint256"
        },
        {
          "name": "_XII_english",
          "type": "uint256"
        }
      ],
      "name": "set_marks_XII_english",
      "outputs": [],
      "payable": false,
      "stateMutability": "nonpayable",
      "type": "function"
    },
    {
      "constant": false,
      "inputs": [
        {
          "name": "_roll_number",
          "type": "uint256"
        },
        {
          "name": "_XII_maths",
          "type": "uint256"
        }
      ],
      "name": "set_marks_XII_maths",
      "outputs": [],
      "payable": false,
      "stateMutability": "nonpayable",
      "type": "function"
    },
    {
      "constant": false,
      "inputs": [
        {
          "name": "_roll_number",
          "type": "uint256"
        },
        {
          "name": "_XII_physics",
          "type": "uint256"
        }
      ],
      "name": "set_marks_XII_physics",
      "outputs": [],
      "payable": false,
      "stateMutability": "nonpayable",
      "type": "function"
    },
    {
      "constant": false,
      "inputs": [
        {
          "name": "_roll_number",
          "type": "uint256"
        },
        {
          "name": "_XII_chemistry",
          "type": "uint256"
        }
      ],
      "name": "set_marks_XII_chemistry",
      "outputs": [],
      "payable": false,
      "stateMutability": "nonpayable",
      "type": "function"
    },
    {
      "constant": false,
      "inputs": [
        {
          "name": "_roll_number",
          "type": "uint256"
        },
        {
          "name": "_XII_computer_science",
          "type": "uint256"
        }
      ],
      "name": "set_marks_XII_computer_science",
      "outputs": [],
      "payable": false,
      "stateMutability": "nonpayable",
      "type": "function"
    },
    {
      "constant": false,
      "inputs": [
        {
          "name": "_roll_number",
          "type": "uint256"
        },
        {
          "name": "_XII_percentage",
          "type": "uint256"
        }
      ],
      "name": "set_marks_XII_percentage",
      "outputs": [],
      "payable": false,
      "stateMutability": "nonpayable",
      "type": "function"
    },
    {
      "constant": true,
      "inputs": [
        {
          "name": "_roll_number",
          "type": "uint256"
        }
      ],
      "name": "get_marks_XII_english",
      "outputs": [
        {
          "name": "",
          "type": "uint256"
        }
      ],
      "payable": false,
      "stateMutability": "view",
      "type": "function"
    },
    {
      "constant": true,
      "inputs": [
        {
          "name": "_roll_number",
          "type": "uint256"
        }
      ],
      "name": "get_marks_XII_maths",
      "outputs": [
        {
          "name": "",
          "type": "uint256"
        }
      ],
      "payable": false,
      "stateMutability": "view",
      "type": "function"
    },
    {
      "constant": true,
      "inputs": [
        {
          "name": "_roll_number",
          "type": "uint256"
        }
      ],
      "name": "get_marks_XII_physics",
      "outputs": [
        {
          "name": "",
          "type": "uint256"
        }
      ],
      "payable": false,
      "stateMutability": "view",
      "type": "function"
    },
    {
      "constant": true,
      "inputs": [
        {
          "name": "_roll_number",
          "type": "uint256"
        }
      ],
      "name": "get_marks_XII_chemistry",
      "outputs": [
        {
          "name": "",
          "type": "uint256"
        }
      ],
      "payable": false,
      "stateMutability": "view",
      "type": "function"
    },
    {
      "constant": true,
      "inputs": [
        {
          "name": "_roll_number",
          "type": "uint256"
        }
      ],
      "name": "get_marks_XII_computer_science",
      "outputs": [
        {
          "name": "",
          "type": "uint256"
        }
      ],
      "payable": false,
      "stateMutability": "view",
      "type": "function"
    },
    {
      "constant": true,
      "inputs": [
        {
          "name": "_roll_number",
          "type": "uint256"
        }
      ],
      "name": "get_marks_XII_percentage",
      "outputs": [
        {
          "name": "",
          "type": "uint256"
        }
      ],
      "payable": false,
      "stateMutability": "view",
      "type": "function"
    },
    {
      "constant": false,
      "inputs": [
        {
          "name": "_roll_number",
          "type": "uint256"
        },
        {
          "name": "_XII_english",
          "type": "uint256"
        },
        {
          "name": "_XII_maths",
          "type": "uint256"
        },
        {
          "name": "_XII_physics",
          "type": "uint256"
        },
        {
          "name": "_XII_chemistry",
          "type": "uint256"
        },
        {
          "name": "_XII_computer_science",
          "type": "uint256"
        },
        {
          "name": "_XII_percentage",
          "type": "uint256"
        }
      ],
      "name": "set_marks_XII",
      "outputs": [],
      "payable": false,
      "stateMutability": "nonpayable",
      "type": "function"
    },
    {
      "constant": true,
      "inputs": [
        {
          "name": "_roll_number",
          "type": "uint256"
        }
      ],
      "name": "get_marks_XII",
      "outputs": [
        {
          "name": "",
          "type": "uint256"
        },
        {
          "name": "",
          "type": "uint256"
        },
        {
          "name": "",
          "type": "uint256"
        },
        {
          "name": "",
          "type": "uint256"
        },
        {
          "name": "",
          "type": "uint256"
        },
        {
          "name": "",
          "type": "uint256"
        }
      ],
      "payable": false,
      "stateMutability": "view",
      "type": "function"
    },
    {
      "constant": false,
      "inputs": [
        {
          "name": "_roll_number",
          "type": "uint256"
        },
        {
          "name": "_subject_code",
          "type": "uint256"
        },
        {
          "name": "_marks",
          "type": "uint256"
        }
      ],
      "name": "set_marks_BTech",
      "outputs": [],
      "payable": false,
      "stateMutability": "nonpayable",
      "type": "function"
    },
    {
      "constant": true,
      "inputs": [
        {
          "name": "_roll_number",
          "type": "uint256"
        },
        {
          "name": "_subject_code",
          "type": "uint256"
        }
      ],
      "name": "get_marks_BTech",
      "outputs": [
        {
          "name": "",
          "type": "uint256"
        }
      ],
      "payable": false,
      "stateMutability": "view",
      "type": "function"
    }
  ],
  "bytecode": "0x606060405234156200001057600080fd5b336000806101000a81548173ffffffffffffffffffffffffffffffffffffffff021916908373ffffffffffffffffffffffffffffffffffffffff1602179055506040805190810160405280600a81526020017f5374657665204d616e6e00000000000000000000000000000000000000000000815250600260006401e3af940081526020019081526020016000206000019080519060200190620000b692919062000387565b506040805190810160405280600981526020017f4d617961204d616e6e0000000000000000000000000000000000000000000000815250600260006401e3af9400815260200190815260200160002060030190805190602001906200011d92919062000387565b506040805190810160405280601381526020017f4a6f67696e6465722053696e6768204d616e6e00000000000000000000000000815250600260006401e3af9400815260200190815260200160002060020190805190602001906200018492919062000387565b506401e3af9400600260006401e3af94008152602001908152602001600020600101819055506053600260006401e3af9400815260200190815260200160002060040160000181905550605a600260006401e3af9400815260200190815260200160002060040160010181905550605d600260006401e3af94008152602001908152602001600020600401600201819055506053600260006401e3af94008152602001908152602001600020600401600301819055506062600260006401e3af940081526020019081526020016000206004016004018190555061037e600260006401e3af940081526020019081526020016000206004016005018190555061037e600260006401e3af94008152602001908152602001600020600401600601819055506050600260006401e3af94008152602001908152602001600020600b01600001819055506055600260006401e3af94008152602001908152602001600020600b0160010181905550605d600260006401e3af94008152602001908152602001600020600b01600201819055506054600260006401e3af94008152602001908152602001600020600b01600301819055506062600260006401e3af94008152602001908152602001600020600b0160040181905550610370600260006401e3af94008152602001908152602001600020600b016005018190555062000436565b828054600181600116156101000203166002900490600052602060002090601f016020900481019282601f10620003ca57805160ff1916838001178555620003fb565b82800160010185558215620003fb579182015b82811115620003fa578251825591602001919060010190620003dd565b5b5090506200040a91906200040e565b5090565b6200043391905b808211156200042f57600081600090555060010162000415565b5090565b90565b61248580620004466000396000f3006060604052600436106101ed576000357c0100000000000000000000000000000000000000000000000000000000900463ffffffff168062f49502146101f2578063065fc1231461025457806308bbc8db146102805780630c392099146102b757806319506ded1461042b5780632008c3b3146104605780632338723f14610497578063243115321461053357806329b0b34e1461056a5780632a253ea41461060657806336c811d3146106465780634280d60e1461073257806358498e6a146107695780635bdfc7ad146107955780635e168434146107c157806360b11192146107ed5780636881e5ed146108245780636bab2b8614610850578063757bacbd146108875780637beb5850146108be5780637f0f543c14610918578063892075cb146109b457806391a4eb9814610a0d578063b610fc2814610a39578063b80f0d7214610a70578063b95775d714610a9c578063b9b55e8314610ad3578063c2a5736714610aff578063c908f3f114610b2b578063cfa6721e14610b62578063d5f8595514610bc8578063dd37d20114610bff578063eacec35914610c36578063eb357c2214610c62578063eb5c847414610c8e578063f492d26414610cba578063f524f0e114610ce6578063fb6d521814610d47578063fcc2bd7114610dad578063ff05b7bb14610de4575b600080fd5b34156101fd57600080fd5b6102526004808035906020019091908035906020019091908035906020019091908035906020019091908035906020019091908035906020019091908035906020019091908035906020019091905050610e4a565b005b341561025f57600080fd5b61027e6004808035906020019091908035906020019091905050610fdf565b005b341561028b57600080fd5b6102a1600480803590602001909190505061106c565b6040518082815260200191505060405180910390f35b34156102c257600080fd5b6102d8600480803590602001909190505061108f565b60405180806020018060200180602001848103845287818151815260200191508051906020019080838360005b83811015610320578082015181840152602081019050610305565b50505050905090810190601f16801561034d5780820380516001836020036101000a031916815260200191505b50848103835286818151815260200191508051906020019080838360005b8381101561038657808201518184015260208101905061036b565b50505050905090810190601f1680156103b35780820380516001836020036101000a031916815260200191505b50848103825285818151815260200191508051906020019080838360005b838110156103ec5780820151818401526020810190506103d1565b50505050905090810190601f1680156104195780820380516001836020036101000a031916815260200191505b50965050505050505060405180910390f35b341561043657600080fd5b61045e60048080359060200190919080359060200190919080359060200190919050506112ca565b005b341561046b57600080fd5b6104816004808035906020019091905050611359565b6040518082815260200191505060405180910390f35b34156104a257600080fd5b6104b8600480803590602001909190505061137c565b6040518080602001828103825283818151815260200191508051906020019080838360005b838110156104f85780820151818401526020810190506104dd565b50505050905090810190601f1680156105255780820380516001836020036101000a031916815260200191505b509250505060405180910390f35b341561053e57600080fd5b610554600480803590602001909190505061143a565b6040518082815260200191505060405180910390f35b341561057557600080fd5b61058b600480803590602001909190505061145d565b6040518080602001828103825283818151815260200191508051906020019080838360005b838110156105cb5780820151818401526020810190506105b0565b50505050905090810190601f1680156105f85780820380516001836020036101000a031916815260200191505b509250505060405180910390f35b341561061157600080fd5b610630600480803590602001909190803590602001909190505061151b565b6040518082815260200191505060405180910390f35b341561065157600080fd5b610730600480803590602001909190803590602001908201803590602001908080601f0160208091040260200160405190810160405280939291908181526020018383808284378201915050505050509190803590602001908201803590602001908080601f0160208091040260200160405190810160405280939291908181526020018383808284378201915050505050509190803590602001908201803590602001908080601f01602080910402602001604051908101604052809392919081815260200183838082843782019150505050505091905050611550565b005b341561073d57600080fd5b610753600480803590602001909190505061164d565b6040518082815260200191505060405180910390f35b341561077457600080fd5b6107936004808035906020019091908035906020019091905050611670565b005b34156107a057600080fd5b6107bf60048080359060200190919080359060200190919050506116fd565b005b34156107cc57600080fd5b6107eb600480803590602001909190803590602001909190505061178a565b005b34156107f857600080fd5b61080e6004808035906020019091905050611817565b6040518082815260200191505060405180910390f35b341561082f57600080fd5b61084e600480803590602001909190803590602001909190505061183a565b005b341561085b57600080fd5b61087160048080359060200190919050506118c7565b6040518082815260200191505060405180910390f35b341561089257600080fd5b6108a860048080359060200190919050506118ea565b6040518082815260200191505060405180910390f35b34156108c957600080fd5b6108df600480803590602001909190505061190d565b60405180878152602001868152602001858152602001848152602001838152602001828152602001965050505050505060405180910390f35b341561092357600080fd5b61093960048080359060200190919050506119c7565b6040518080602001828103825283818151815260200191508051906020019080838360005b8381101561097957808201518184015260208101905061095e565b50505050905090810190601f1680156109a65780820380516001836020036101000a031916815260200191505b509250505060405180910390f35b34156109bf57600080fd5b610a0b6004808035906020019091908035906020019091908035906020019091908035906020019091908035906020019091908035906020019091908035906020019091905050611a85565b005b3415610a1857600080fd5b610a376004808035906020019091908035906020019091905050611bee565b005b3415610a4457600080fd5b610a5a6004808035906020019091905050611c7b565b6040518082815260200191505060405180910390f35b3415610a7b57600080fd5b610a9a6004808035906020019091908035906020019091905050611c9e565b005b3415610aa757600080fd5b610abd6004808035906020019091905050611d2b565b6040518082815260200191505060405180910390f35b3415610ade57600080fd5b610afd6004808035906020019091908035906020019091905050611d4e565b005b3415610b0a57600080fd5b610b296004808035906020019091908035906020019091905050611ddb565b005b3415610b3657600080fd5b610b4c6004808035906020019091905050611e68565b6040518082815260200191505060405180910390f35b3415610b6d57600080fd5b610bc6600480803590602001909190803590602001908201803590602001908080601f01602080910402602001604051908101604052809392919081815260200183838082843782019150505050505091905050611e8b565b005b3415610bd357600080fd5b610be96004808035906020019091905050611f15565b6040518082815260200191505060405180910390f35b3415610c0a57600080fd5b610c206004808035906020019091905050611f38565b6040518082815260200191505060405180910390f35b3415610c4157600080fd5b610c606004808035906020019091908035906020019091905050611f5b565b005b3415610c6d57600080fd5b610c8c6004808035906020019091908035906020019091905050611fe8565b005b3415610c9957600080fd5b610cb86004808035906020019091908035906020019091905050612075565b005b3415610cc557600080fd5b610ce46004808035906020019091908035906020019091905050612102565b005b3415610cf157600080fd5b610d07600480803590602001909190505061218f565b6040518088815260200187815260200186815260200185815260200184815260200183815260200182815260200197505050505050505060405180910390f35b3415610d5257600080fd5b610dab600480803590602001909190803590602001908201803590602001908080601f01602080910402602001604051908101604052809392919081815260200183838082843782019150505050505091905050612269565b005b3415610db857600080fd5b610dce60048080359060200190919050506122f3565b6040518082815260200191505060405180910390f35b3415610def57600080fd5b610e48600480803590602001909190803590602001908201803590602001908080601f01602080910402602001604051908101604052809392919081815260200183838082843782019150505050505091905050612316565b005b6000809054906101000a900473ffffffffffffffffffffffffffffffffffffffff1673ffffffffffffffffffffffffffffffffffffffff163373ffffffffffffffffffffffffffffffffffffffff16141515610ea557600080fd5b60648711158015610eb7575060648611155b8015610ec4575060648511155b8015610ed1575060648411155b8015610ede575060648311155b8015610eeb575060648211155b8015610ef85750600a8111155b1515610f0357600080fd5b86600260008a81526020019081526020016000206004016000018190555085600260008a81526020019081526020016000206004016001018190555084600260008a81526020019081526020016000206004016002018190555083600260008a81526020019081526020016000206004016003018190555082600260008a81526020019081526020016000206004016004018190555081600260008a81526020019081526020016000206004016005018190555080600260008a8152602001908152602001600020600401600601819055505050505050505050565b6000809054906101000a900473ffffffffffffffffffffffffffffffffffffffff1673ffffffffffffffffffffffffffffffffffffffff163373ffffffffffffffffffffffffffffffffffffffff1614151561103a57600080fd5b6064811115151561104a57600080fd5b8060026000848152602001908152602001600020600b01600401819055505050565b600060026000838152602001908152602001600020600401600401549050919050565b6110976123a0565b61109f6123a0565b6110a76123a0565b600260008581526020019081526020016000206000016002600086815260200190815260200160002060020160026000878152602001908152602001600020600301828054600181600116156101000203166002900480601f01602080910402602001604051908101604052809291908181526020018280546001816001161561010002031660029004801561117e5780601f106111535761010080835404028352916020019161117e565b820191906000526020600020905b81548152906001019060200180831161116157829003601f168201915b50505050509250818054600181600116156101000203166002900480601f01602080910402602001604051908101604052809291908181526020018280546001816001161561010002031660029004801561121a5780601f106111ef5761010080835404028352916020019161121a565b820191906000526020600020905b8154815290600101906020018083116111fd57829003601f168201915b50505050509150808054600181600116156101000203166002900480601f0160208091040260200160405190810160405280929190818152602001828054600181600116156101000203166002900480156112b65780601f1061128b576101008083540402835291602001916112b6565b820191906000526020600020905b81548152906001019060200180831161129957829003601f168201915b505050505090509250925092509193909250565b6000809054906101000a900473ffffffffffffffffffffffffffffffffffffffff1673ffffffffffffffffffffffffffffffffffffffff163373ffffffffffffffffffffffffffffffffffffffff1614151561132557600080fd5b8060026000858152602001908152602001600020601101600001600084815260200190815260200160002081905550505050565b600060026000838152602001908152602001600020600401600301549050919050565b6113846123a0565b600260008381526020019081526020016000206003018054600181600116156101000203166002900480601f01602080910402602001604051908101604052809291908181526020018280546001816001161561010002031660029004801561142e5780601f106114035761010080835404028352916020019161142e565b820191906000526020600020905b81548152906001019060200180831161141157829003601f168201915b50505050509050919050565b600060026000838152602001908152602001600020600b01600501549050919050565b6114656123a0565b600260008381526020019081526020016000206002018054600181600116156101000203166002900480601f01602080910402602001604051908101604052809291908181526020018280546001816001161561010002031660029004801561150f5780601f106114e45761010080835404028352916020019161150f565b820191906000526020600020905b8154815290600101906020018083116114f257829003601f168201915b50505050509050919050565b600060026000848152602001908152602001600020601101600001600083815260200190815260200160002054905092915050565b6000809054906101000a900473ffffffffffffffffffffffffffffffffffffffff1673ffffffffffffffffffffffffffffffffffffffff163373ffffffffffffffffffffffffffffffffffffffff161415156115ab57600080fd5b826002600086815260200190815260200160002060000190805190602001906115d59291906123b4565b50806002600086815260200190815260200160002060030190805190602001906116009291906123b4565b508160026000868152602001908152602001600020600201908051906020019061162b9291906123b4565b5083600260008681526020019081526020016000206001018190555050505050565b600060026000838152602001908152602001600020600401600601549050919050565b6000809054906101000a900473ffffffffffffffffffffffffffffffffffffffff1673ffffffffffffffffffffffffffffffffffffffff163373ffffffffffffffffffffffffffffffffffffffff161415156116cb57600080fd5b606481111515156116db57600080fd5b8060026000848152602001908152602001600020600401600501819055505050565b6000809054906101000a900473ffffffffffffffffffffffffffffffffffffffff1673ffffffffffffffffffffffffffffffffffffffff163373ffffffffffffffffffffffffffffffffffffffff1614151561175857600080fd5b600a811115151561176857600080fd5b8060026000848152602001908152602001600020600401600601819055505050565b6000809054906101000a900473ffffffffffffffffffffffffffffffffffffffff1673ffffffffffffffffffffffffffffffffffffffff163373ffffffffffffffffffffffffffffffffffffffff161415156117e557600080fd5b606481111515156117f557600080fd5b8060026000848152602001908152602001600020600401600101819055505050565b600060026000838152602001908152602001600020600401600501549050919050565b6000809054906101000a900473ffffffffffffffffffffffffffffffffffffffff1673ffffffffffffffffffffffffffffffffffffffff163373ffffffffffffffffffffffffffffffffffffffff1614151561189557600080fd5b606481111515156118a557600080fd5b8060026000848152602001908152602001600020600b01600001819055505050565b600060026000838152602001908152602001600020600401600201549050919050565b600060026000838152602001908152602001600020600401600101549050919050565b60008060008060008060026000888152602001908152602001600020600b016000015460026000898152602001908152602001600020600b0160010154600260008a8152602001908152602001600020600b0160020154600260008b8152602001908152602001600020600b0160030154600260008c8152602001908152602001600020600b0160040154600260008d8152602001908152602001600020600b016005015495509550955095509550955091939550919395565b6119cf6123a0565b600260008381526020019081526020016000206000018054600181600116156101000203166002900480601f016020809104026020016040519081016040528092919081815260200182805460018160011615610100020316600290048015611a795780601f10611a4e57610100808354040283529160200191611a79565b820191906000526020600020905b815481529060010190602001808311611a5c57829003601f168201915b50505050509050919050565b6000809054906101000a900473ffffffffffffffffffffffffffffffffffffffff1673ffffffffffffffffffffffffffffffffffffffff163373ffffffffffffffffffffffffffffffffffffffff16141515611ae057600080fd5b60648611158015611af2575060648511155b8015611aff575060648411155b8015611b0c575060648311155b8015611b19575060648211155b8015611b26575060648111155b1515611b3157600080fd5b8560026000898152602001908152602001600020600b01600001819055508460026000898152602001908152602001600020600b01600101819055508360026000898152602001908152602001600020600b01600201819055508260026000898152602001908152602001600020600b01600301819055508160026000898152602001908152602001600020600b01600401819055508060026000898152602001908152602001600020600b016005018190555050505050505050565b6000809054906101000a900473ffffffffffffffffffffffffffffffffffffffff1673ffffffffffffffffffffffffffffffffffffffff163373ffffffffffffffffffffffffffffffffffffffff16141515611c4957600080fd5b60648111151515611c5957600080fd5b8060026000848152602001908152602001600020600b01600101819055505050565b600060026000838152602001908152602001600020600b01600201549050919050565b6000809054906101000a900473ffffffffffffffffffffffffffffffffffffffff1673ffffffffffffffffffffffffffffffffffffffff163373ffffffffffffffffffffffffffffffffffffffff16141515611cf957600080fd5b60648111151515611d0957600080fd5b8060026000848152602001908152602001600020600401600001819055505050565b600060026000838152602001908152602001600020600b01600401549050919050565b6000809054906101000a900473ffffffffffffffffffffffffffffffffffffffff1673ffffffffffffffffffffffffffffffffffffffff163373ffffffffffffffffffffffffffffffffffffffff16141515611da957600080fd5b60648111151515611db957600080fd5b8060026000848152602001908152602001600020600401600301819055505050565b6000809054906101000a900473ffffffffffffffffffffffffffffffffffffffff1673ffffffffffffffffffffffffffffffffffffffff163373ffffffffffffffffffffffffffffffffffffffff16141515611e3657600080fd5b60648111151515611e4657600080fd5b8060026000848152602001908152602001600020600b01600501819055505050565b600060026000838152602001908152602001600020600401600001549050919050565b6000809054906101000a900473ffffffffffffffffffffffffffffffffffffffff1673ffffffffffffffffffffffffffffffffffffffff163373ffffffffffffffffffffffffffffffffffffffff16141515611ee657600080fd5b80600260008481526020019081526020016000206002019080519060200190611f109291906123b4565b505050565b600060026000838152602001908152602001600020600b01600101549050919050565b600060026000838152602001908152602001600020600b01600001549050919050565b6000809054906101000a900473ffffffffffffffffffffffffffffffffffffffff1673ffffffffffffffffffffffffffffffffffffffff163373ffffffffffffffffffffffffffffffffffffffff16141515611fb657600080fd5b60648111151515611fc657600080fd5b8060026000848152602001908152602001600020600401600201819055505050565b6000809054906101000a900473ffffffffffffffffffffffffffffffffffffffff1673ffffffffffffffffffffffffffffffffffffffff163373ffffffffffffffffffffffffffffffffffffffff1614151561204357600080fd5b6064811115151561205357600080fd5b8060026000848152602001908152602001600020600b01600201819055505050565b6000809054906101000a900473ffffffffffffffffffffffffffffffffffffffff1673ffffffffffffffffffffffffffffffffffffffff163373ffffffffffffffffffffffffffffffffffffffff161415156120d057600080fd5b606481111515156120e057600080fd5b8060026000848152602001908152602001600020600b01600301819055505050565b6000809054906101000a900473ffffffffffffffffffffffffffffffffffffffff1673ffffffffffffffffffffffffffffffffffffffff163373ffffffffffffffffffffffffffffffffffffffff1614151561215d57600080fd5b6064811115151561216d57600080fd5b8060026000848152602001908152602001600020600401600401819055505050565b60008060008060008060006002600089815260200190815260200160002060040160000154600260008a815260200190815260200160002060040160010154600260008b815260200190815260200160002060040160020154600260008c815260200190815260200160002060040160030154600260008d815260200190815260200160002060040160040154600260008e815260200190815260200160002060040160050154600260008f8152602001908152602001600020600401600601549650965096509650965096509650919395979092949650565b6000809054906101000a900473ffffffffffffffffffffffffffffffffffffffff1673ffffffffffffffffffffffffffffffffffffffff163373ffffffffffffffffffffffffffffffffffffffff161415156122c457600080fd5b806002600084815260200190815260200160002060030190805190602001906122ee9291906123b4565b505050565b600060026000838152602001908152602001600020600b01600301549050919050565b6000809054906101000a900473ffffffffffffffffffffffffffffffffffffffff1673ffffffffffffffffffffffffffffffffffffffff163373ffffffffffffffffffffffffffffffffffffffff1614151561237157600080fd5b8060026000848152602001908152602001600020600001908051906020019061239b9291906123b4565b505050565b602060405190810160405280600081525090565b828054600181600116156101000203166002900490600052602060002090601f016020900481019282601f106123f557805160ff1916838001178555612423565b82800160010185558215612423579182015b82811115612422578251825591602001919060010190612407565b5b5090506124309190612434565b5090565b61245691905b8082111561245257600081600090555060010161243a565b5090565b905600a165627a7a723058208d88caa8f3e3d02a233a62e5839322451b5a34c0316f42a3a9e13d5accc1f10e0029",
  "source": "pragma solidity ^0.4.18;\r\n\r\ncontract DossierAlpha {\r\n    address owner;\r\n    \r\n    struct Student{\r\n        string name;\r\n        uint roll_number;\r\n        string name_father;\r\n        string name_mother;\r\n        X X_marks;\r\n        XII XII_marks;\r\n        BTech BTech_marks;\r\n    }\r\n    \r\n    struct X{\r\n        uint english;\r\n        uint maths;\r\n        uint science;\r\n        uint social_science;\r\n        uint computer_science;\r\n        \r\n        uint percentage;    //divide by 10 to get actual percentage\r\n        uint cgpa;          //divide by 100 to get actual CGPA\r\n    }\r\n    \r\n    struct XII{\r\n        uint english;\r\n        uint maths;\r\n        uint physics;\r\n        uint chemistry;\r\n        uint computer_science;\r\n        \r\n        uint percentage;    //divide by 10 to get actual percentage\r\n    }\r\n    \r\n    struct BTech{\r\n        mapping(uint => uint) marks;    //mapping from subject_code to marks\r\n    }\r\n    \r\n    mapping(uint => string) subject_codes;  //mapping from subject_codes to subject name\r\n    mapping(uint => Student) data;      //mapping from roll_number to Student data\r\n    \r\n    function DossierAlpha() public {\r\n        owner = msg.sender;\r\n        \r\n        data[8114902016].name = \"Steve Mann\";\r\n        data[8114902016].name_mother = \"Maya Mann\";\r\n        data[8114902016].name_father = \"Joginder Singh Mann\";\r\n        data[8114902016].roll_number = 8114902016;\r\n        \r\n        data[8114902016].X_marks.english = 83;\r\n        data[8114902016].X_marks.maths = 90;\r\n        data[8114902016].X_marks.science = 93;\r\n        data[8114902016].X_marks.social_science = 83;\r\n        data[8114902016].X_marks.computer_science = 98;\r\n        data[8114902016].X_marks.percentage = 894;\r\n        data[8114902016].X_marks.cgpa = 894;\r\n        \r\n        data[8114902016].XII_marks.english = 80;\r\n        data[8114902016].XII_marks.maths = 85;\r\n        data[8114902016].XII_marks.physics = 93;\r\n        data[8114902016].XII_marks.chemistry = 84;\r\n        data[8114902016].XII_marks.computer_science = 98;\r\n        data[8114902016].XII_marks.percentage = 880;\r\n    }\r\n    \r\n    function set_name(uint _roll_number, string _name) public onlyOwner{\r\n        data[_roll_number].name = _name;\r\n    }\r\n    \r\n    function set_name_father(uint _roll_number, string _name_father) public onlyOwner{\r\n        data[_roll_number].name_father = _name_father;\r\n    }\r\n    \r\n    function set_name_mother(uint _roll_number, string _name_mother) public onlyOwner{\r\n        data[_roll_number].name_mother = _name_mother;\r\n    }\r\n    \r\n    function get_name(uint _roll_number) public constant returns(string){\r\n        return data[_roll_number].name;\r\n    }\r\n    \r\n    function get_name_father(uint _roll_number) public constant returns(string){\r\n        return data[_roll_number].name_father;\r\n    }\r\n    \r\n    function get_name_mother(uint _roll_number) public constant returns(string){\r\n        return data[_roll_number].name_mother;\r\n    }\r\n    \r\n    function set_data(uint _roll_number, string _name, string _name_father, string _name_mother) public onlyOwner {\r\n        data[_roll_number].name = _name;\r\n        data[_roll_number].name_mother = _name_mother;\r\n        data[_roll_number].name_father = _name_father;\r\n        data[_roll_number].roll_number = _roll_number;\r\n    }\r\n    \r\n    function get_data(uint _roll_number) public constant returns(string, string, string){\r\n        return (data[_roll_number].name, data[_roll_number].name_father, data[_roll_number].name_mother);\r\n    }\r\n    \r\n    function set_marks_X_english(uint _roll_number, uint _X_english) public onlyOwner{\r\n        require(_X_english<=100); \r\n        data[_roll_number].X_marks.english = _X_english;\r\n    }\r\n    \r\n    function set_marks_X_maths(uint _roll_number, uint _X_maths) public onlyOwner{\r\n        require(_X_maths<=100);\r\n        data[_roll_number].X_marks.maths = _X_maths;\r\n    }\r\n    \r\n    function set_marks_X_science(uint _roll_number, uint _X_science) public onlyOwner{\r\n        require(_X_science<=100);\r\n        data[_roll_number].X_marks.science = _X_science;\r\n    }\r\n    \r\n    function set_marks_X_social_science(uint _roll_number, uint _X_social_science) public onlyOwner{\r\n        require(_X_social_science<=100);\r\n        data[_roll_number].X_marks.social_science = _X_social_science;\r\n    }\r\n    \r\n    function set_marks_X_computer_science(uint _roll_number, uint _X_computer_science) public onlyOwner{\r\n        require(_X_computer_science<=100);\r\n        data[_roll_number].X_marks.computer_science = _X_computer_science;\r\n    }\r\n    \r\n    function set_marks_X_percentage(uint _roll_number, uint _X_percentage) public onlyOwner{\r\n        require(_X_percentage<=100);\r\n        data[_roll_number].X_marks.percentage = _X_percentage;\r\n    }\r\n    \r\n    function set_marks_X_cgpa(uint _roll_number, uint _X_cgpa) public onlyOwner{\r\n        require(_X_cgpa<=10);\r\n        data[_roll_number].X_marks.cgpa = _X_cgpa;\r\n    }\r\n    \r\n    function get_marks_X_english(uint _roll_number) public constant returns(uint){\r\n        return data[_roll_number].X_marks.english;\r\n    }\r\n    \r\n    function get_marks_X_maths(uint _roll_number) public constant returns(uint){\r\n        return data[_roll_number].X_marks.maths;\r\n    }\r\n    \r\n    function get_marks_X_science(uint _roll_number) public constant returns(uint){\r\n        return data[_roll_number].X_marks.science;\r\n    }\r\n    \r\n    function get_marks_X_social_science(uint _roll_number) public constant returns(uint){\r\n        return data[_roll_number].X_marks.social_science;\r\n    }\r\n    \r\n    function get_marks_X_computer_science(uint _roll_number) public constant returns(uint){\r\n        return data[_roll_number].X_marks.computer_science;\r\n    }\r\n    \r\n    function get_marks_X_percentage(uint _roll_number) public constant returns(uint){\r\n        return data[_roll_number].X_marks.percentage;\r\n    }\r\n    \r\n    function get_marks_X_cgpa(uint _roll_number) public constant returns(uint){\r\n        return data[_roll_number].X_marks.cgpa;\r\n    }\r\n    \r\n    function set_marks_X(uint _roll_number, uint _X_english, uint _X_maths, uint _X_science, uint _X_social_science,\r\n                                uint _X_computer_science, uint _X_percentage, uint _X_cgpa) public onlyOwner {\r\n        require( (_X_english<=100) && (_X_maths<=100) && (_X_science<=100) && (_X_social_science<=100) && (_X_computer_science<=100) && (_X_percentage<=100) && (_X_cgpa<=10));\r\n        data[_roll_number].X_marks.english = _X_english;\r\n        data[_roll_number].X_marks.maths = _X_maths;\r\n        data[_roll_number].X_marks.science = _X_science;\r\n        data[_roll_number].X_marks.social_science = _X_social_science;\r\n        data[_roll_number].X_marks.computer_science = _X_computer_science;\r\n        data[_roll_number].X_marks.percentage = _X_percentage;\r\n        data[_roll_number].X_marks.cgpa = _X_cgpa;\r\n    }\r\n    \r\n    function get_marks_X(uint _roll_number) public constant returns(uint,uint,uint,uint,uint,uint,uint){\r\n        return (data[_roll_number].X_marks.english, data[_roll_number].X_marks.maths, data[_roll_number].X_marks.science,\r\n                    data[_roll_number].X_marks.social_science, data[_roll_number].X_marks.computer_science,\r\n                    data[_roll_number].X_marks.percentage, data[_roll_number].X_marks.cgpa);\r\n    }\r\n    \r\n    function set_marks_XII_english(uint _roll_number, uint _XII_english) public onlyOwner{\r\n         require(_XII_english<=100);\r\n        data[_roll_number].XII_marks.english = _XII_english;\r\n    }\r\n    \r\n    function set_marks_XII_maths(uint _roll_number, uint _XII_maths) public onlyOwner{\r\n         require(_XII_maths<=100);\r\n        data[_roll_number].XII_marks.maths = _XII_maths;\r\n    }\r\n    \r\n    function set_marks_XII_physics(uint _roll_number, uint _XII_physics) public onlyOwner{\r\n         require(_XII_physics<=100);\r\n        data[_roll_number].XII_marks.physics= _XII_physics;\r\n    }\r\n    \r\n    function set_marks_XII_chemistry(uint _roll_number, uint _XII_chemistry) public onlyOwner{\r\n         require(_XII_chemistry<=100);\r\n        data[_roll_number].XII_marks.chemistry = _XII_chemistry;\r\n    }\r\n    \r\n    function set_marks_XII_computer_science(uint _roll_number, uint _XII_computer_science) public onlyOwner{\r\n         require(_XII_computer_science<=100);\r\n         data[_roll_number].XII_marks.computer_science = _XII_computer_science;\r\n    }\r\n    \r\n    function set_marks_XII_percentage(uint _roll_number, uint _XII_percentage) public onlyOwner{\r\n         require(_XII_percentage<=100);\r\n         data[_roll_number].XII_marks.percentage = _XII_percentage;\r\n    }\r\n    \r\n    \r\n    function get_marks_XII_english(uint _roll_number) public constant returns(uint){\r\n        return data[_roll_number].XII_marks.english;\r\n    }\r\n    \r\n    function get_marks_XII_maths(uint _roll_number) public constant returns(uint){\r\n        return data[_roll_number].XII_marks.maths;\r\n    }\r\n    \r\n    function get_marks_XII_physics(uint _roll_number) public constant returns(uint){\r\n        return data[_roll_number].XII_marks.physics;\r\n    }\r\n    \r\n    function get_marks_XII_chemistry(uint _roll_number) public constant returns(uint){\r\n        return data[_roll_number].XII_marks.chemistry;\r\n    }\r\n    \r\n    function get_marks_XII_computer_science(uint _roll_number) public constant returns(uint){\r\n        return data[_roll_number].XII_marks.computer_science;\r\n    }\r\n    \r\n    function get_marks_XII_percentage(uint _roll_number) public constant returns(uint){\r\n        return data[_roll_number].XII_marks.percentage;\r\n    }\r\n    \r\n    \r\n    function set_marks_XII(uint _roll_number, uint _XII_english, uint _XII_maths, uint _XII_physics,\r\n                                uint _XII_chemistry, uint _XII_computer_science, uint _XII_percentage) public onlyOwner {\r\n        require((_XII_english<=100) && (_XII_maths<=100) && (_XII_physics<=100) && (_XII_chemistry<=100) && (_XII_computer_science<=100) && (_XII_percentage<=100));  \r\n        data[_roll_number].XII_marks.english = _XII_english;\r\n        data[_roll_number].XII_marks.maths = _XII_maths;\r\n        data[_roll_number].XII_marks.physics = _XII_physics;\r\n        data[_roll_number].XII_marks.chemistry = _XII_chemistry;\r\n        data[_roll_number].XII_marks.computer_science = _XII_computer_science;\r\n        data[_roll_number].XII_marks.percentage = _XII_percentage;\r\n    }\r\n    \r\n    function get_marks_XII(uint _roll_number) public constant returns(uint,uint,uint,uint,uint,uint){\r\n        return (data[_roll_number].XII_marks.english, data[_roll_number].XII_marks.maths, data[_roll_number].XII_marks.physics,\r\n                    data[_roll_number].XII_marks.chemistry, data[_roll_number].XII_marks.computer_science,\r\n                    data[_roll_number].XII_marks.percentage);\r\n    }\r\n    \r\n    function set_marks_BTech(uint _roll_number, uint _subject_code, uint _marks) public onlyOwner{\r\n    \r\n        data[_roll_number].BTech_marks.marks[_subject_code] = _marks;\r\n    }\r\n   \r\n    function get_marks_BTech(uint _roll_number, uint _subject_code) public constant returns(uint){\r\n        return data[_roll_number].BTech_marks.marks[_subject_code];\r\n    }\r\n    \r\n    modifier onlyOwner(){\r\n        require(msg.sender == owner);\r\n        _;\r\n    }\r\n    \r\n}",
  "sourcePath": "C:\\Users\\DELL\\Desktop\\Dossier\\contracts\\DossierAlpha.sol",
  "compiler": {
    "name": "solc",
    "version": "0.4.19+commit.c4cbbb05.Emscripten.clang"
  },
  "schemaVersion": "2.0.0",
  "updatedAt": "2018-03-26T13:53:04.929Z"
}